S00B000066746D2E73726563D2
S2140100000058002085010100E1010100E101010025
S21401001000000000000000000000000000000000DA
S214010020000000000000000000000000E1010100E7
S2140100300000000000000000E1010100E1010100F4
S214010040E1010100E1010100E1010100E10101001E
S214010050E1010100E1010100E1010100E10101000E
S214010060E1010100E1010100E1010100E1010100FE
S214010070E1010100E1010100E1010100E1010100EE
S214010080E1010100E1010100E1010100E1010100DE
S214010090E1010100E1010100E1010100E1010100CE
S2140100A0E1010100E1010100E1010100E1010100BE
S2140100B0E1010100E1010100E1010100E1010100AE
S2140100C0FFFFFFFFFFFFFFFFFFFFFFFFFE7FFFFFBB
S2140100D0054B0648033310B51B1A062B03D9044BF0
S2140100E0002B00D0984710BD680700206807002045
S2140100F0000000000648074910B5091A8910CB0F01
S2140101005918491003D0044B002B00D0984710BD56
S21401011068070020680700200000000010B5074CA3
S2140101202378002B09D1FFF7D3FF054B002B02D014
S214010130044800E000BF0123237010BDC03000203A
S2140101400000000074200100094B10B5002B03D0FD
S2140101500849094800E000BF08480368002B02D19F
S214010160FFF7C8FF10BD064B002BF9D09847F7E7FD
S21401017000000000C4300020742001006007002049
S2140101800000000072B610490F4A0F4B0E4C0E4D80
S2140101900D4E0D4FB846B946BA46BB46BC460B494E
S2140101A00B4A521A013A05DD00200423086019445F
S2140101B0043AFBDA074885460748804707488047E0
S2140101C062B600F0B7F8FEE700000000000000206D
S2140101D00058002000580020151E0100611D010076
S2140101E0FEE7C046002243088B4274D303098B42C4
S2140101F05FD3030A8B4244D3030B8B4228D3030CF1
S2140102008B420DD3FF22090212BA030C8B4202D392
S2140102101212090265D0030B8B4219D300E0090ABA
S214010220C30B8B4201D3CB03C01A5241830B8B42C3
S21401023001D38B03C01A5241430B8B4201D34B03AC
S214010240C01A5241030B8B4201D30B03C01A524111
S214010250C30A8B4201D3CB02C01A5241830A8B4296
S21401026001D38B02C01A5241430A8B4201D34B027F
S214010270C01A5241030A8B4201D30B02C01A5241E3
S214010280CDD2C3098B4201D3CB01C01A5241830997
S2140102908B4201D38B01C01A524143098B4201D3D1
S2140102A04B01C01A524103098B4201D30B01C01AFC
S2140102B05241C3088B4201D3CB00C01A5241830876
S2140102C08B4201D38B00C01A524143088B4201D3A3
S2140102D04B00C01A5241411A00D201465241104603
S2140102E07047FFE701B5002000F006F802BDC046E2
S2140102F00029F7D076E770477047C04610B50B4B1C
S2140103001B78092B08D80133084A1370802189000D
S214010310002000F061FB10BD80210902044800F0B6
S21401032002F90022014B1A70F0E7C046DC300020CB
S214010330C0F00F4070B598B000231A4A01211A4840
S21401034000F082FC0021002000F092FC17493A20C0
S21401035000F0D0F880263602154D3100280000F056
S214010360DEF83100280000F0DCF86A46114900206A
S21401037000F0D6FB002210490E2000F0D7F80E2020
S21401038000F006F90D49002000F04CF9002000F0BD
S214010390B7F907230134E4B22342FBD1C046C04675
S2140103A0C046F7E7FC300020380700203401002063
S2140103B0C0F00F40A4060020FD020100B806002090
S2140103C030B501680B005A1E9341002B01D100BEC7
S2140103D0FEE7C27A012A03D0002B06D100BEFEE753
S2140103E003695C1EA341DBB2F6E7446800231F25C0
S2140103F0A5425B41DBB2002B01D100BEFEE7A400A3
S21401040009190B68047A012C49D0002C03D0022C60
S2140104104AD000BEFEE70224A3431024A343457A34
S2140104202D012C4023434024A343857AAD012C4063
S21401043023432C4C1C401302E022D20013402343DA
S214010440294A1340027BD207120C1343274A1A404B
S214010450437B1B04F024240323401343827B002A9E
S21401046004D0234A13408022520413430B600168D0
S214010470C0254B5944680122A24093431A00C37B0E
S214010480A34013434B51C37A012B23D101694B6916
S214010490027D002A0BD0012A1ED000BEFEE70124F1
S2140104A0A34301342343B8E703242343B5E70122DA
S2140104B04468A24093434B61037D012B0AD1016935
S2140104C044680B680122A24093431A00437DA3406F
S2140104D013430B60002030BD01224468A240134341
S2140104E0E9E7C046FFF8FFFFFF7FFFFFFFFFF0FFD2
S2140104F0FFFFFFFEF8B5071E0ED00C0000260025F4
S21401050003E001351834AF4207D02000FFF758FF4B
S2140105100028F6D00600F4E700263000F8BD416159
S214010520704741607047C1607047000030B5C3171F
S21401053001250E246442A0426B41DBB2002B01D19F
S21401054000BEFEE7C30F00251F2484426B41DBB2C9
S214010550002B01D100BEFEE70A4B0B4CE3580B4CB7
S2140105609C4201D000BEFEE7002A05D003001033EE
S2140105709B00064C1B59136010308000034BC15082
S21401058030BDC046080D000000E000E0000000207D
S214010590002801DA00BEFEE7C1B200231F228A420C
S2140105A05B41DBB2002B01D100BEFEE740091F22F2
S2140105B00A40012393408000014A83507047C04699
S2140105C000E100E0002801DA00BEFEE7C2B2002327
S2140105D01F2191425B41DBB2002B01D100BEFEE739
S2140105E043091F21114001228A4020339B00014903
S2140105F05A50704700E100E0054B1B68002B04DDF4
S214010600013B034A1360002B00DD704762B6FCE72E
S214010610E030002072B6024A136801331360704757
S214010620E0300020F0B50023012282425B41DBB2BC
S214010630002B01D100BEFEE7002901D100BEFEE776
S2140106400A78063AD2B20023012494425B41DBB217
S214010650002B01D100BEFEE78000264BC358264A78
S2140106608458002C44D062780120002A38D11A68B8
S214010670173082431A601A68204802401A60DA6C02
S214010680120C120448880243DA649A68120C1204A7
S214010690888802439A6080201A580125AA431A5076
S2140106A0DA687C388243DA60DA6804308243DA60DA
S2140106B0073804270826C2009A18D568BD43D560B6
S2140106C0D568B543D56001300828F4D10A78062AE2
S2140106D007D11A68183082431A600B7863700020BD
S2140106E0F0BD072AF9D11A68202002431A60F4E700
S2140106F00120F5E7381E0100E4300020FFFDFFFF72
S2140107000023012282425B41DBB2002B01D100BEF5
S214010710FEE78000094BC158094BC3585A68002AA6
S21401072001D100BEFEE70A681B78DB0018200340F3
S214010730824313430B6000207047C046381E0100F9
S214010740E4300020436D01221343436503680632FB
S21401075093431140194301607047000030B5436F61
S2140107600023436704224265026803604360836096
S214010770C364026D03658365C3650366436683666A
S214010780C26EC36603678367C367802283500432E1
S214010790835004328350043283500432835004322F
S2140107A0835004328350043283500F4B984203D057
S2140107B0002200210C4C08E0002180239B000A4AFD
S2140107C0D150F5E70132082A0CD0D300C318DD68F2
S2140107D0D9601961A042F5D19300044DAC4663443B
S2140107E05960EFE730BDC0460090034000920340D9
S2140107F070B50023012282425B41DBB2002B01D19E
S21401080000BEFEE7002901D100BEFEE78000674B6F
S214010810C3584A78002A00D085E08A78002A00D09A
S21401082092E0C878012202400878002800D1B8E09A
S2140108300120002A76D18C2298585D4C04408020F5
S214010840C0002043985098585A4C0440802000011C
S214010850204398509858584C04408020400120432B
S21401086098509858554C044080208000204398505A
S2140108709C58C87A000280256D002840504D2C40B7
S214010880204398508C201A58802422431A504A78C4
S214010890002A4AD09A6D102002439A658A78002A67
S2140108A048D09A6D202002439A65CA78002A46D01D
S2140108B09A6D402002439A65986D0A795200022487
S2140108C02240A04302439A659A6D013CA2434879AF
S2140108D002439A65986D0A7A551EAA41D2000825E8
S2140108E0A84302439A658C229D58887900011026F8
S2140108F03040B543284398509D58C879400110367A
S2140109003040B543284398509D58487A80001C3E95
S2140109103040B543284398509858A043897A0143FC
S2140109209950002070BD01207CE79A6D102082430B
S2140109309A65B3E79A6D202082439A65B5E79A6D6A
S214010940402082439A65B7E70A780120002AE9D158
S21401095000D070E78C2298581A4C04408020C002C0
S214010960204398509858184C044080200003204398
S21401097098509858154C04408020400320439850C6
S2140109809858134C044080208002204398509C586D
S214010990C87A451EA84100040E4D2C4020439850AD
S2140109A070E7002AD6D10120BCE7C046381E0100F8
S2140109B0FFFBFFFFFFF7FFFFFFEFFFFFFFFDFFFF5F
S2140109C0FFFEFFFFFFFFFBFFFFFFF7FFFFFFEFFF4E
S2140109D0FFFFFDFFFFFFFEFFF0B50023012282426D
S2140109E05B41DBB2002B01D100BEFEE78000214B4C
S2140109F0C358FF2008408A0503D51A681E4C2240BA
S214010A001A60CA050FD55A6F8124A2435A675A6FD6
S214010A100134A2435A675A6F0234A2435A675A6F87
S214010A200434A2435A674A0503D51A688024A243B0
S214010A301A600A0503D5DA6E80218A43DA66002237
S214010A4001250726002405E000BEFEE74008013226
S214010A50082A0ED00542F9D0D1B227008E4267414E
S214010A60F9B20029F0D0196D2F009740B9431965E6
S214010A70ECE7F0BD381E0100FFFDFFFF70B582B048
S214010A8004000023012282425B41DBB2002B01D12C
S214010A9000BEFEE783001F4A9A580021019115689F
S214010AA01D4A9B581B78022B1CD0032B03D0012B0D
S214010AB01ED0002312E04200184B9B185E7801A955
S214010AC0300000F0C1FF019B002B02D16400134BE4
S214010AD0E65C01A9300000F0B7FF0300002B0DD043
S214010AE000BEFEE701A9182000F0AEFF0300F5E7FF
S214010AF001A9002000F0A8FF0300EFE707232B4021
S214010B00012199400B00FF2119400198FFF76AFB6C
S214010B1002B070BD381E0100E4300020401E010006
S214010B20F0B5CE46474680B583B007000E001500E7
S214010B300023012282425B41DBB2002B01D100BEC1
S214010B40FEE7002901D100BEFEE7002D01D100BE5F
S214010B50FEE78300384A9C58384A9B580122019286
S214010B60002B53D18B7B2B7000236B706B80830023
S214010B70324A9D50280008302B001833290058317E
S214010B8038229446AC440022914690464A4602805A
S214010B904A461A601A6242460A700230043301312C
S214010BA06345F3D12000FFF7D9FD717B2000FFF7E5
S214010BB0C9FD3800FFF762FF6860002835D100BE26
S214010BC0FEE731003800FFF713FE0190E26E737CFA
S214010BD09B0140210B408A431343E366842022583D
S214010BE0F17B8901FF230B40C0218A431343235025
S214010BF0337C002B10D02368114A1A4080235B00F7
S214010C00134323600F4BD857FFF7C2FC019803B07C
S214010C100CBC90469946F0BD2368094A13402360F0
S214010C20084BD857FFF7CEFCF0E7337B023B022B8D
S214010C30C7D900230193C9E7381E0100E43000201C
S214010C40FFFEFFFF441E010010B5002801D100BEC3
S214010C50FEE7002A01D100BEFEE7044C20602171A8
S214010C60A26023736373002010BDC046EC300020E1
S214010C70F0B5C64600B582B006000F003B4B1B79A7
S214010C80984201D300BEFEE701AD28706970FFF7F8
S214010C90C1FC364B1C7B5C730123AB70002C4FD020
S214010CA00024324D05E00134E4B2304B1B7BA342F5
S214010CB046D9A300AA689B58002BF4D01A79022AB9
S214010CC0F1D099681B6801A898470028EBD0274BFC
S214010CD05C73002FE7D10425FF35002201AB9A7023
S214010CE0A400224E27E00134E4B2204B1B7BA34232
S214010CF013D9A300B2689B58002BF4D01A79012AA5
S214010D00F1D099681B6801A898470028EBD0174BCB
S214010D105C73002FE7D182256D00FFF76DFC28007C
S214010D2002B004BC9046F0BD99681B6801A89847BC
S214010D30043C231DF1D0B3681B59002BF4D1F7E70F
S214010D400A4B9846B30042461268985800F0E4FBF6
S214010D50051E43465E71C0D1022201AB9A70034B59
S214010D601B7B002BD9D00024004EC2E7EC300020BC
S214010D70084B5A69FF231340042B06D0802B06D05C
S214010D800120012B02D0042000E00220704703203E
S214010D90FCE7C04600E0074080235B00034AD358C7
S214010DA00020DB0101D5024B186870470040064061
S214010DB00031002030B585B000293BD080235B0090
S214010DC03E4AD3589B0174D480235B00D4583C4DD3
S214010DD02C40D4508024E404D4500022394B1A60AD
S214010DE0002800D168E04B7A1B02E022D2001340B3
S214010DF0087A072202401343304C82225200A35045
S214010E00CA791201302313408879C00008220240B3
S214010E10134348798000042202401343842252007F
S214010E20A3500B79012B27D0002B10D0022B2ED0EC
S214010E3000BEFEE700236A4613711373012269465A
S214010E400A724A724B718B710233CB71B6E70B7B18
S214010E505A1E9341DB0501221343FF321748835084
S214010E600A68184B1A60184CFFF796FF00281BD12A
S214010E70002C17D0013CF7E70B7B5A1E9341DB058C
S214010E80124A1343802252000C488350E8E70B7B3A
S214010E905A1E9341DB050E4A13438022520007482F
S214010EA08350DDE7033005E00020002C02D103303B
S214010EB000E0022005B030BD0020FBE70040064000
S214010EC0FFFF7FFF0031002088E7300001000100AE
S214010ED00100030080239B00064AD3580020DB0153
S214010EE005D582239B00D358DB0701D502487047FE
S214010EF00020FCE70040064000127A0030B583B0BF
S214010F0000293BD080239B002B4AD258FF3BFF3B56
S214010F1092014BD4284AFF33FF33D458274D2C4037
S214010F20D4500024D450002843D08B781B02E022F2
S214010F30D200134048780722024013431E4A8120FC
S214010F40800013500878012303408220800013504C
S214010F5048798A7909790323002900D1023B0100E7
S214010F60481E814189000B43511E8A41D205134315
S214010F708022920010498B5064240BE000226B46BD
S214010F801A71012369464B718A714B708B700B7015
S214010F90B8E7013CFFF79EFF002803D1002CF8D1EB
S214010FA0032303E00023002C00D10333180003B011
S214010FB030BD0023FAE7C04600400640FFFF7FFF32
S214010FC0C0239B00054AD358DB0104D5C2239B00EE
S214010FD0D358034870470020FCE7C046004006404F
S214010FE0006CDC0230B583B0002935D0C0239B00ED
S214010FF0274AD2580223920140D4254AC0239B0097
S214011000D458244D2C40D4508024E404D4500028D5
S2140110103CD08B781B02E022D2001340487807228E
S214011020024013431A4AC120800013500878032354
S2140110300340C220800013508B7949790122002990
S21401104000D10832591E8B41DB051343C0229200A2
S2140110500F498B5014240AE001236A46537100227B
S21401106069468A714B708B700A70BFE7013CFFF7C7
S214011070A7FF002805D1002CF8D10323180003B0E0
S21401108030BD0023002CF9D10333F7E70023F5E741
S21401109000400640FFFF7FFFF0B5C64600B580461C
S2140110A00C008F784E780D78002801D100BEFEE73F
S2140110B0CB78022B13D0032B14D00020012B01D1A7
S2140110C0FFF76AFE013701367E4301357D4302098B
S2140110D04346012B09D0022B3ED000BEFEE7FFF7A8
S2140110E0F9FEEFE7FFF76CFFECE7E1780C234B43E3
S2140110F036481B581B095F430120BA4229D80B30DA
S2140111004843324B1B185B681B095E430120B24201
S2140111101FD80B3048432D4B1B189B681B095D439A
S2140111200120AA4215D8A3781B04F022120313400B
S2140111300A06F02109050A40134322780F210A40C6
S214011140134362781201F0310A401343204A536177
S214011150002004BC9046F0BDE178022901D000BE13
S214011160FEE70C234B431B481B581B095F4301201A
S214011170BA42EED80B304843164B1B185B681B0966
S2140111805E430120B242E4D80B304843114B1B1892
S2140111909B681B095D430120AA42DAD8A3781B0489
S2140111A0F022120313400906F022120511400B43E8
S2140111B022780F210A40134362781201F0310A4067
S2140111C01343034A93610020C3E7C046841F01000E
S2140111D000400640D81F010070B5041E01D100BEB4
S2140111E0FEE7C378FF2B01D100BEFEE7FFF7C0FD87
S2140111F0042801D100BEFEE72100FFF74DFF0028BD
S2140112000CD1E5780A22084C0F21013A23691B0EFE
S2140112100B409D4203D0002AF7D1032070BD002A5F
S214011220FCD10320FAE7C0460040064010B5040092
S2140112300023022282425B41DBB2002B01D100BEB9
S214011240FEE7194B1B691B011B0F022B16D0032B44
S21401125017D00020012B0ED0134B19690903090F73
S2140112600131FEF7BFFF012C0ED0002C02D0022C5C
S21401127012D0002010BDFFF78FFDEDE7FFF72AFE25
S214011280EAE7FFF79DFEE7E7074B19690906090F2D
S2140112900131FEF7A7FFEDE7034B1B690F2119404C
S2140112A00131FEF79FFFE5E70040064010B50D4B04
S2140112B01B6A1B011B0F012B0BD0002B05D0022B29
S2140112C00AD0032B0BD0002002E00220FFF7AEFF6E
S2140112D010BDFFF761FDFBE7FFF7FCFDF8E7FFF741
S2140112E06FFEF5E70040064010B5002903D001293E
S2140112F02BD000BEFEE7052805D006281CD0042802
S21401130010D000BEFEE7FFF75BFEC1239B00204A1C
S214011310D25807231340002B02D0013BD8400300CC
S214011320180010BDFFF7D6FD81239B00184AD2583E
S214011330FE3BFF3B1340EEE7FFF72EFD82235B00EB
S214011340134AD258FD3B1340E5E7052805D0062889
S21401135015D004280AD000BEFEE7FFF731FEC123F0
S2140113609B000B4AD3585B055B0FD4E7FFF7B2FD32
S21401137081239B00064AD3585B055B0FCBE7FFF73B
S2140113800BFD82235B00024AD3585B055B0FC2E765
S2140113900040064010B5114B1B699B069B0F012BA5
S2140113A00CD0002B05D0022B10D0032B11D000201F
S2140113B003E000210620FFF797FF10BD074B1B69CE
S2140113C002201840F9D0FA20C001F6E7044B18684D
S2140113D0F3E700210520FFF787FFEEE700800440D2
S2140113E00431002070B54000164BC35A9B00164AC4
S2140113F0944663441C68E406E40F1D680F221540FA
S2140114000020A54215D318684000C00F11D01B68F4
S2140114105B015B0F022B0DD0032B0FD00020012B9D
S21401142002D10620FFF760FF691CFEF7DBFE0134E0
S214011430604370BD0420FFF757FFF5E70520FFF76F
S21401144053FFF1E7F81E010000500640114B1B69DF
S2140114501B079B0F012B07D0002B17D0022B05D0A3
S214011460032B0BD000BEFEE700207047094B1B691B
S21401147002201840F9D0FA20C001F6E7054B1B6997
S21401148002201840F1D0FA20C001EEE7FA2040020F
S214011490EBE7C0460080044010B51D4B5B6800209A
S2140114A01B0534D51A4B5B681B061B0F0E2B03D886
S2140114B09B00184AD3589F46002021E0FFF7F6FE0E
S2140114C01EE001210620FFF70FFF19E0012104208D
S2140114D0FFF70AFF14E001210520FFF705FF0FE0E3
S2140114E00020FFF7A3FE0BE00120FFF79FFE07E0B9
S2140114F0FFF7ACFF04E0FFF74DFF01E0FA204002E2
S214011500034B59684905490F0131FEF76BFE10BDC3
S21401151000800440481E0100F0B5DE4657464E46A0
S2140115204546E0B5A1B00400FFF722FC012801D032
S21401153000BEFEE7002C04D0261E00D0B5E000BE9B
S214011540FEE702AB0122DA70002119715A71997116
S2140115501A705A709A709A731A735973D9711A72EB
S2140115605A7230201A54D9625A77B94818611975D7
S21401157019775A7599750234DC751A765A762820C9
S2140115801A540838195407301954063819540C25BA
S21401159001301D540130195401301A5401301A54C7
S2140115A010301A543238283558550F355A550A3DD9
S2140115B05855013D5955013D5A55013D5A55073576
S2140115C05C553A341A55013C1955013C1855A14849
S2140115D018671720D8662D301A5401301954013077
S2140115E019540130195401301A5404301A54013870
S2140115F01A54013819540138195417301A54013045
S2140116001A5401301A5401301A5401301A54013058
S2140116101A5406301A541B381A5459659965D965F7
S21401162016301A5401301A54013019540130195425
S214011630013019540A301A5401301A54753299542B
S2140116401E001C00844B1B691B011B0F032B17D0AC
S214011650FFF7B6FC002806D100210130FFF7C2FCD7
S214011660051E00D08EE001A80323C37000228270FD
S214011670013242700370FFF7AFFD051E00D081E016
S214011680E0783100FFF73AFC051E05D12100103144
S214011690607FFFF78FFB0500FFF76AFB01280DD07F
S2140116A0022800D176E000BEFEE7002CCAD1230056
S2140116B06C33002B00D082E000BEFEE726003636F3
S2140116C0002D34D1F378032B67D1637F002B00D133
S2140116D0AAE101A80123C37000228270437003703F
S2140116E0FFF77AFD0500E378002B0CD001280AD11C
S2140116F001A80223C3700023837043700133037073
S214011700FFF76AFD0500002D11D1E11DA07BFFF753
S21401171069FC051E0BD101A8F378C370B3788370FA
S2140117207378437033780370FFF756FD0500002D7C
S21401173028D13023E35C002B02D0484BE26A1A60C2
S2140117403523E35C002B0BD043490B6A444A1A400D
S2140117503423E35C1B06F0200005034013430B62B1
S2140117604323E35C002BA2D0210036310120FFF792
S21401177093FC051E06D121003A310220FFF78CFCAE
S214011780051E94D0280021B03CBC90469946A2463E
S214011790AB46F0BD26003A3692E701A8C370B3788F
S2140117A083707378437033780370FFF715FD051E59
S2140117B0BDD1E11DA07BFFF715FC0500B7E7002BA7
S2140117C040D0236F002B3DD0E36E002B3AD0002291
S2140117D0244B9846244B9C46E027FF041026910094
S2140117E08918236F5B5C5B0040461B5A9B001F48B1
S2140117F081464B441868654628401860236F994611
S21401180049440B7899468B781B063B409B46CB7820
S2140118101B0133405846034308790F2528400343EC
S2140118204978481E814189070B43494649000D48BE
S214011830095A890089460D49484643500132E36EEC
S2140118409A42CCD32300443312D100BEFEE7C046F1
S21401185000127A00C000002000400640043100203B
S214011860FFFFFFF0F81E0100FFFFFFBF005006401C
S2140118704423E35C002B17D0220044329578D178BC
S2140118806C4B58686C4B18405278531E9A41D202E2
S2140118902D01FF232B400902E025ED0029400B43D3
S2140118A003431343634A5360230044331B79002BDD
S2140118B019D022004432957950795E4B19693F233D
S2140118C099430B00117A1943D279531E9A4152005B
S2140118D0AD000C232B400B430001302101400B438C
S2140118E01343544A1361230044331B7F002B35D026
S2140118F0504B1A6C01218A43110020004430427F6C
S2140119000A431A641B6C02229343827F511E8A414A
S21401191052001343474A1364136C04229343C27F55
S214011920511E8A4192001343424A1364136C0822E3
S2140119309343220064321278511E8A41D200134327
S2140119403C4A1364136C10229343220065321278CA
S214011950511E8A4112011343364A1364230044334D
S2140119601B7B002B06D0354B626D1A60A26D5A6048
S214011970E26D9A60230066331B78002B24D02D4A33
S214011980936E0020906653682D49194023006833F2
S2140119901B781B0380256D012B400B43536090661B
S2140119A0230067331B78002B0ED0230069331A7887
S2140119B052000E23134022006A321178802252050B
S2140119C00A4313431B4A93662300743301D100BEB6
S2140119D0FEE77423E35C002B24D01A498B787F2220
S2140119E013407434627801204240D2011343DBB2C3
S2140119F08B700223E356002B01DA20335BB2D9B297
S214011A000022202088425241D2B2002A01D100BED3
S214011A10FEE70C4801791F22134091430B430371E3
S214011A200025AFE60025ADE6E3780125002B00D1C1
S214011A307DE65DE6008004400FF0FFFF08310020E0
S214011A40FFEFFFFF00D0074070B504000D0011281E
S214011A5006D9212869D90420442C00D80EE170BD8E
S214011A600F285FD88400B44B1B599F460020FFF710
S214011A70DDFB03000020002DF1D02B60EFE70120F5
S214011A80FFF7D4FB03000020F5E70220FFF7CEFBAB
S214011A9003000020EFE7FFF7FFFC03000020EAE762
S214011AA0FFF718FA03000020E5E7FFF789FA0300BD
S214011AB00020E0E7FFF770F903000020DBE79F4B0B
S214011AC01B680020D7E7FFF7F1FB03000020D2E7F1
S214011AD000210420FFF708FC03000020CBE70121CA
S214011AE00420FFF701FC03000020C4E700210520C5
S214011AF0FFF7FAFB03000020BDE701210520FFF7F1
S214011B00F3FB03000020B6E700210620FFF7ECFBFD
S214011B1003000020AFE701210620FFF7E5FB0300E5
S214011B200020A8E700230420A5E7153CE3B20C2B10
S214011B3000D982E09C00824B1B599F46814BDB6893
S214011B409B019B0F022B00D97AE09B007E4A9B5893
S214011B5000200EE07B4BDB681B019B0F022B72D82B
S214011B609B00794A9B58002003E0FFF795FC030091
S214011B700020002D00D172E72B6070E7FFF70AFC0A
S214011B8003000020F5E7714B9B78DB0902D00023A8
S214011B900020EEE7FFF75AFC03000020E9E76B4B55
S214011BA09B78DB0952D1674B18690123034000205B
S214011BB0002BDED0FA239B000020DAE7634B9B78EC
S214011BC0DB0946D15F4B1869022303400020002B36
S214011BD0CFD0FA23DB010020CBE75C4B9B78DB09F7
S214011BE03AD1FA235B020020C3E7564B1B6CDB0697
S214011BF0DB0F34D180204000BBE7524B1B6C1B0728
S214011C00DB0F2FD180204000B3E74E4B1B6C5B07E8
S214011C10DB0F2AD180204000ABE74A4B1B6C9B07A9
S214011C20DB0F25D180204000A3E7464B186C01232B
S214011C30034020D1802040009BE70023042098E742
S214011C400023002095E70023002092E700230020D0
S214011C508FE7002300208CE70023002089E700237C
S214011C60002086E70023002083E70023002080E78A
S214011C70002300207DE7002300207AE7222C06D8E7
S214011C8000220420002D00D1E9E62A60E7E62300C1
S214011C90323BDBB2122B05D82D4ADA401300002264
S214011CA0DB07EFD463002B4A9B5A9B002A4A9A58BB
S214011CB05200D20F02D180204000E3E7274B1E5D81
S214011CC0B30606D473060FD473B2002B15DB00BE21
S214011CD0FEE70120FFF7AAFA00280AD018231E42C1
S214011CE011D100221000CDE70020FFF79FFA00284F
S214011CF0F4D1002280204000C4E70220FFF796FAC4
S214011D000028F6D0EAE7330705D4F3060AD4002202
S214011D1080204000B6E700212000FFF763FB0200A9
S214011D20F30604D501212000FFF75CFB02005042B8
S214011D3050410002A6E7C046841E0100043100207F
S214011D40C41E0100008004400831002000D0074076
S214011D5029010400F81E0100005006402C20010055
S214011D6030B5204A204B9A4209D01F49891A0023D0
S214011D701E4C1000C25CE25401338B42FAD11C4A5D
S214011D801C4B9A4209D01B49891A00231A4C100091
S214011D90C25CE25401339942FAD1184A184B9A426E
S214011DA006D013000021164A197001339342FBD165
S214011DB0144A154B9A4210D01449890809D00023B9
S214011DC00022104C1048C558E550013204338A42AF
S214011DD0F9D10F4B0B4A1A6030BD0D4B0A4A1A60F7
S214011DE0FAE7C046A020010048270100C0000020F5
S214011DF0482701004827010068070020C03000205E
S214011E00183100200000002000000100C000000082
S214011E1008ED00E0044B054A5A605A68044A1A6005
S214011E20044A9A607047C0460020054020C528D95C
S214011E3020210000FFFF00000080034000900340C7
S214011E40153816390E110000BC140100B814010033
S214011E50C2140100B8140100CC140100B81401002A
S214011E60D6140100E0140100B8140100E8140100C2
S214011E70FC140100B8140100F0140100B8140100AC
S214011E80F61401006C1A01007E1A01008A1A01007C
S214011E90961A0100A01A0100AA1A0100B41A01003C
S214011EA0241B0100BE1A0100C61A0100D01A010047
S214011EB0DE1A0100EC1A0100FA1A0100081B0100E3
S214011EC0161B01003C1B0100541B01006A1B01008C
S214011ED07C1B0100861B01009E1B0100BC1B010030
S214011EE0DA1B0100EA1B0100FA1B01000A1C0100B3
S214011EF01A1C01002A1C010000000000000000005E
S214011F0000000000000000000000000000000000CB
S214011F1000000000000000000000000000000000BB
S214011F2000000000000000000000000000000000AB
S214011F30000000000000000000000000000000009B
S214011F4000000000000000000000730032002100C5
S214011F5049004A004B004C004D003D0000002400A3
S214011F6036000000200000003800390000003B0069
S214011F705A00660037002C002D0040006A006B00F6
S214011F80000000000000000000000000000000004B
S214011F9000B4C404006CDC02B0F3960100B4C404BF
S214011FA0006CDC02B0F3960100B4C404006CDC02E1
S214011FB0B0F39601000000000000000000000000E1
S214011FC000000000000000000000000000B4C4048F
S214011FD0005A6202B0F39601000000000000000003
S214011FE00000000000093D0000093D0040420F00CE
S214011FF000093D0000093D0040420F0000093D0078
S21401200000093D0040420F000000000000000000F3
S21401201000000000000000000000000000000000BA
S21401202000093D0000093D0040420F00000000008D
S214012030000000000000000000000000000000009A
S2140120400000000000000000004141414141000045
S214012050000000000020202020202020202000401A
S2140120604000800048480030303030303036303064
S21401207000000000F8B5C046F8BC08BC9E46704794
S214012080F8B5C046F8BC08BC9E4670470000000084
S20C0120904901010000000000F7
S20C0120981D010100000000001B
S2140120A03B0102000029010000002A010000002B6C
S2140120B00100000033010000003C0102000036016F
S2140120C0000000380102000039010200003D010253
S2140120D000003E010200003F010200004001020034
S2140120E0004101020000420102000043010200001B
S2140120F034010000002C010000002D010000002E1C
S214012100010000002F010000003001000000310135
S2140121100000000000C004400100000000000000B4
S21401212000000000000000000000000000C00440A5
S2140121300000000000000000000000000000000099
S2140121400000000000D004400B000000000000006A
S21401215000000000000000000000000000D0044065
S2140121600A0000000000000000000000000000005F
S2140121700000000000D00440050000000000000040
S21401218000000000000000000000000000D0044035
S2140121900400000000000000000000000000000035
S2140121A00000000000A0044007000000000000003E
S2140121B000000000000000000000000000A0044035
S2140121C00600000000000000000000000000000003
S2140121D00000000000D004400300000000000000E2
S2140121E000000000000000000000000000C00440E5
S2140121F010000000000000000000000000000000C9
S2140122000000000000C004400F00000000000001B4
S21401221000000000C0F00F400100000000D00440A4
S214012220090000000000000000000000000000009F
S2140122300000000000D00440080000000200000179
S2140122400000000000F10F400100000000A0044063
S2140122500500000000000000000000000000000073
S2140122600000000000A00440040000000000000080
S21401227000000000000000000000000000B0044064
S2140122800300000000000000000000000000000045
S2140122900000000000B00440020000000000000042
S2140122A000000000000000000000000000C0044024
S2140122B00700000000000000000000000000000011
S2140122C00000000000C004400600000000000000FE
S2140122D000000000000000000000000000C00440F4
S2140122E005000000000000000000000000000000E3
S2140122F00000000000B004400100000000000000E3
S21401230000000000000000000000000000B00440D3
S21401231000000000000000000000000000000000B7
S2140123200000000000B004401100000000000000A2
S21401233000000000000000000000000000B00440A3
S2140123401000000000000000000000000000000077
S2140123500000000000B004400F0000000000000074
S21401236000000000000000000000000000B0044073
S2140123700E00000000000000000000000000000049
S2140123800000000000A00440030000000000000060
S21401239000000000000000000000000000A0044053
S2140123A00200000000000000000000000000000025
S2140123B00000000000A00440010000000000000032
S2140123C000000000000000000000000000A0044023
S2140123D000000000000000000000000000000000F7
S2140123E00000000000B004400900000000000000EA
S2140123F000000000000000000000000000B00440E3
S21401240008000000000000000000000000000000BE
S21401241000000000009004400700000000000000DB
S21401242000000000000000000000000000900440D2
S2140124300600000000000000000000000000000090
S2140124400000000000D0044007000000000000006B
S21401245000000000000000000000000000A0044092
S2140124600D00000000000000000000000000000059
S2140124700000000000A004400C0000000000000066
S21401248000000000000000000000000000C0044042
S2140124900400000000000000000000000000000032
S2140124A00000000000C0044003000000000000001F
S2140124B000000000000000000000000000C0044012
S2140124C00200000000000000000000000000000004
S2140124D0000000000090044003000000000000001F
S2140124E00000000000000000000000000090044012
S2140124F002000000000000000000000000000000D4
S21401250000000000009004400100000000000000F0
S21401251000000000000000000000000000900440E1
S21401252000000000000000000000000000000000A5
S2140125300000000000B0044007000000000000009A
S21401254000000000000000000000000000B0044091
S214012550060000000000000000000000000000006F
S2140125600000000000D0044006000000000000004B
S21401257000000000000000000000000000D0044041
S2140125800200000000000000000000000000000043
S21401259000000000009004400D0000000000000054
S2140125A00000000000000000000000000090044051
S2140125B00C00000000000000000000000000000009
S2140125C000000000009004400B0000000000000026
S2140125D00000000000000000000000000090044021
S2140125E00A000000000001070000000000000000D3
S2140125F00000000000D004400100000000000000C0
S21401260000000000000000000000000000D00440B0
S21401261000000000000000000000000000000000B4
S2140126200000000000B004400500000002000007A2
S21401263000000000000000000000000000B00440A0
S2140126400400000001000007000000000000000078
S2140126500000000000900440050000000201000791
S2140126600000000000000000000000000090044090
S2140126700400000002000007000000000000000047
S2140126800000000001000000000000000000000142
S2140126900607010001000000060000007C92000011
S2140126A0010101010001000001010000010001001B
S2140126B00024F400000100030101000000010000F5
S2140126C00000000000000000000000000000000004
S2140126D001000000030101010003030001020000E4
S2140126E000000001010000000100000101000000DF
S2140126F001000000000000000000000000000000D3
S21401270001010101010101010000000007000000B4
S2140127103C07002001010000C0060020380102002D
S2140127200039010200002C010000002D010000000C
S2140127302E010000002F0100000030010000000003
S20C01274000000000000000008B
S80401018574
